:020000040800F2
:1000000060070020D5000008612C00086129000865
:1000100000000000000000000000000000000000E0
:10002000000000000000000000000000AB2C0008F1
:100030000000000000000000A92C0008F12C0008BE
:100040000501000805010008050100080501000878
:1000500005010008890A00080501000805010008DB
:1000600000000000690900087909000891090008EA
:10007000410800080501000800000000CD3000081C
:100080000000000000000000000000000000000070
:10009000E12D00080000000000000000050100083C
:1000A0000000000005010008000000000000000042
:1000B0005D38000805010008000000000000000095
:1000C0000348854600F0AAFB00480047693A00084B
:1000D000600700200C4880F308880C480168090E6E
:1000E0000B4A914205D10B480B4901600B480C4962
:1000F00001600C4880470C480047FEE7FEE7FEE73A
:10010000FEE7FEE7FEE700006007002004000000B5
:100110001F000000341002400100000000000140F8
:10012000000000008D2D0008C100000830B50B460E
:10013000014600202022012409E00D46D5409D42C1
:1001400005D31D469540491B254695404019154647
:10015000521E002DF1DC30BD03460B439B0703D03C
:1001600009E008C9121F08C0042AFAD203E00B787C
:100170000370401C491C521EF9D27047D2B201E0F4
:100180000270401C491EFBD270470022F6E710B5F2
:1001900013460A4604461946FFF7F0FF204610BDF5
:1001A000F8B502464A40D40F42004B0052085B08A3
:1001B0009A4202D20246084611464A0023D0C30D95
:1001C0004A00DDB2120EAD1A202D35DA49020126A1
:1001D000490AF6058A19002C00D0524220214F1BF3
:1001E0001146B9402A411018C20D9A4221D0002C64
:1001F00017D0012D08DCDA05801AD20F8019D2073A
:10020000DBB200F073FAF8BDDA05801A0123400072
:100210001B06C01880185A428018CA0F10434900A4
:1002200007E04908C2071143DA05801A801940081F
:10023000801800F053FAF8BD61000122511A001B2A
:10024000F7E70122D2075140AAE70122D207504026
:10025000A6E7024670B54A40D30FDB0740002DD019
:100260004A002AD0010E140E000212020919400A97
:10027000520A8418E50104465443000A120A2E0467
:100280005043A4194219200CC543AA18120C012589
:10029000AD03521C521912047F39240400D0521CA1
:1002A000104301D44000491EC2B20C06C0092018F8
:1002B000401C4008802A02D003E0002070BD4008A6
:1002C0004000002900DA0020184370BD70B50246D6
:1002D0004A40D50F40004A00ED0740085208002868
:1002E00014D0002A12D0C40DD30D41020120C00544
:1002F0005202490A520AE41A091812187D3491422E
:1003000001D3641C00E04900002C01DA002070BD1C
:100310000023914201D3891A034340084900002871
:10032000F7D100290AD0914202D10121C90705E085
:10033000914201D2012101E00121C943E005C01829
:10034000401900F0CBF970BDF0B50746084658409B
:1003500087B0C00F049048000E4659004008490875
:10036000BC1A884105D2384631461E4617460B4610
:1003700002465800400810434CD0300D0390400511
:100380005900400D490D0590401A0290402872DA3C
:1003900018030121000B09050843019004980092FD
:1003A000002805D001995242002088410092019016
:1003B000029840210A1A0199009800F05BF905465D
:1003C0000C466B4607CB00F076F9C0197141039AD1
:1003D0000E0D0023D71756401A467A40164344D0D4
:1003E000049A002A2DD0029A012A039A15DC1205DC
:1003F000C01A914101263605001C7141D20F059E9D
:10040000D2070093019202962A46234600F0B4F9DF
:1004100007B0F0BD38463146FAE71605224A0F46C6
:10042000B218C01AB74101210905001C4F4100183C
:100430007F41114618187941E20F10436D1964414C
:1004400013E0E2076D0815436408C2071443039ADA
:1004500001261205C01A91413605001C7141CE07D4
:10046000400830434908C01851412A46234600F04D
:1004700076F9CDE7FFE7049801224000C117121A70
:1004800000238B4104983146C417381AA141EEE786
:1004900030B40124E407634030BC55E730B4012494
:1004A000E407614030BC4FE70000E0FFF0B50C46C8
:1004B0005C4085B0E40FE40703944C000026640818
:1004C00059009446490802460296224321D06246CA
:1004D0000A431ED06200570D4A000E032303550D38
:1004E000012402462C492405781B1B0B360B4018AF
:1004F00023432643614600901C46501AB44103D35F
:100500000098401C009002E0921800985B4100287F
:1005100003DA0020014605B0F0BD002001210905E5
:100520000746864611E064461D46141BB54106D3B6
:100530006546521BB341744607430C43A646CD079C
:1005400040084908284392185B4105460D43EAD10B
:100550001046184313D06046194650407140084376
:1005600006D06046101AB34106D20122002306E0ED
:1005700000220123DB0702E00122D243531000983E
:1005800074460105381C6141029C039D00196941B4
:1005900000F0E5F8BFE70000FD03000070B54B0078
:1005A0005B0803430BD04B005C0D002633466542CD
:1005B000B341D417AD1AA34102DB0020014670BD40
:1005C00012053018514170BD10B500229623114616
:1005D00000F08CF810BD00000EB505490291002115
:1005E00000910A460B46019100F0C6F803B000BD29
:1005F000330400000EB5054A029200220092134611
:10060000019200F0B9F803B000BD0000330400000F
:100610004A0009030123090B1B051943094B10B5B7
:10062000520D9A4201DA002010BD064B34339A4233
:1006300003DC9A1A00F02EF810BD034951188840C7
:1006400010BD0000FF030000CDFBFFFF0122D20719
:10065000002800DB101A002900DB511A8142704784
:100660000122D207002800DB101A002900DB511AF2
:100670008842704710B5202A04DB0146203A914099
:10068000002010BD914020239C1A0346E3401943EB
:10069000904010BD10B5202A04DB0846203AD04017
:1006A000002110BD0B46D340D0402024A21A914017
:1006B0000843194610BD10B5202A06DBCB170846A3
:1006C000203A1041C1170B4306E00B461341D040BE
:1006D0002024A21A91400843194610BD002904DACB
:1006E000401C490001D140084000704770B400240C
:1006F000050C05D11024000402D1002921D01124B9
:10070000050E01D100020834050F01D10001241D9E
:10071000850F01D18000A41C002801DB4000641C6F
:10072000002908D020252E1B0D46F540A14000D001
:1007300001212943084301061B1B000ADB1D02D5CA
:10074000002070BC7047DB05181880180029F8DA03
:10075000401C4900F5D170BC40084000704710B5FE
:10076000002B08DA0024401C614192185B411A43B7
:1007700001D14008400010BDF0B51FB482B005465D
:100780000C0003D0084603F072F802E003F06FF8A3
:1007900020300246009021462846FFF76BFF049B5D
:1007A000059A04460F4618431143084314D01846CF
:1007B00010431BD0009840210A1A18460599FFF7EC
:1007C00069FF05460E46009A05990498FFF752FF07
:1007D000084305D0012004E02046394607B0F0BDAB
:1007E0000020C11705430E432C43374300990E9850
:1007F0006305401A7905E40A00220C43FD0A0A3019
:1008000002D500200146E9E70105101969410C9C59
:100810000D9D00196941FFF7A2FFDFE7064C012596
:10082000064E05E0E36807CC2B430C3C9847103498
:10083000B442F7D3FFF748FC8C3E0008AC3E0008FA
:1008400010B5024800F037FA10BD00002C0100205E
:1008500010B50146806A826D50231A420AD1816D1B
:1008600001225202114381650168CA681205920F84
:1008700005D020E0006D426B0846904710BD826AAB
:10088000002A18D10A68120715D58A685307012271
:10089000002B09DB4B680C24A3434B60816D1302D2
:1008A00099431143816506E0816D202319438165D9
:1008B000C16D1143C16500F0FBF910BD10B5806A30
:1008C000816D402211438165C16D04221143C165D0
:1008D00000F0F0F910BD10B5806A00F0EAF910BD23
:1008E00038B50446064805490068FFF71FFC604319
:1008F00000E0401E00900028FBD138BD40420F00B0
:100900007C000020F8B50446006881688907890FDB
:10091000012902D10168C90722D18168114A102634
:100920001140012500290ED18168294381600120F1
:10093000FFF7D6FF00F076FE07460CE000F072FEEF
:10094000C01B0A2807D9A06D3043A065E06D28437D
:10095000E0650120F8BD20680068C043C007EDD104
:100960000020F8BD1700008010B5024800F08AFB97
:1009700010BD00008C01002010B5034800F082FB80
:10098000024800F07FFB10BD3802002074020020F6
:1009900010B5024800F076FB10BD0000F00000200A
:1009A00010B5046863608368102B036803D09960F6
:1009B0000068C26010BD9A600068C16010BD000090
:1009C00020481F490180204901677B21C900C1805F
:1009D0000F21890101810A2181721C49C1601D4AD0
:1009E0001B4942610161C2611B4981611B4901626E
:1009F00017491B4A2F318262416202631949C16261
:100A0000194941631249194AC91CC263816342648E
:100A100017490164174981640D49174A2C31026551
:100A2000C164826515494165002215490266C165A8
:100A300014494166C26681661921C9014180704727
:100A4000AAAA0000D00200200AD7A33B1A3F343FD5
:100A5000164D7F3F62528F3D2CCD6A3D048E353F4F
:100A6000504F773CFC1C123CA97B1D3F02B58B3DCF
:100A7000C5A24C3D28D01E3FAE6A703C6D88F03B4D
:100A8000727F7FBFB08D803A10B5022000F00AFD62
:100A900010BD00001A498869C2051A4803D5426989
:100AA00008231A4342618A69920503D542690423E7
:100AB0001A4342618A69520503D5426902231A43E7
:100AC00042618A69120503D5426910231A434261C3
:100AD0008A69920403D5426901231A4342618A69F3
:100AE000920303D5426920231A4342618A69D203E3
:100AF00003D5426940231A43426103488861704725
:100B00000020024044030020002F030070B505467A
:100B100000F088FD06461C4C0AE0681C08D0002D39
:100B200004D000F07FFD801BA84201D9032070BDD6
:100B3000A069C043C007F0D0A069800701D502209A
:100B4000A061A069C043C00517D5A069C043800556
:100B500013D5A069C04340050FD5A069C043000567
:100B60000BD5A069C043800407D5A069C0438003AA
:100B700003D5A069C043C00303D4FFF78BFF012056
:100B800070BD002070BD000000200240F8B5054691
:100B900004464035287D0026012808D0012028750C
:100BA000206881688907890F01290ED101E00220A0
:100BB000F8BD0168C90708D0A06D20210843A065D1
:100BC0000126002028753046F8BDA16DFF220132B4
:100BD000914302221143A16581689207114381600C
:100BE00000F020FD07460EE000F01CFDC01B0A28A7
:100BF00009D9A06D0221884310210843A065002077
:100C000028750120F8BD206880680028ECDBA06D05
:100C100080088000401CA065D3E70000F8B50646B8
:100C20000D464036317D01290DD001213175016815
:100C30008A68520709D5816D202211438165002001
:100C400030750120F8BD0220F8BD174B6A68D80541
:100C500047109A42154C8A6A2B6812D05B035B0BD3
:100C60001A438A622968490305D5A1680143A16036
:100C70000A20FFF735FE2868800312D5A0683843A4
:100C80000EE05B035B0B9A438A622968490302D535
:100C9000A1688143A1602868800302D5A068B84399
:100CA000A06000203075F8BD011000000027014051
:100CB00070477047704770B504460068016849077F
:100CC00002D54168490705D40168090730D5416854
:100CD00009072DD5A16DC90604D4A16D01225202C8
:100CE0001143A165C1680C250905890F00291AD196
:100CF000A16A002917D10168090714D581684A073C
:100D00000121002A08DB4268AA434260A06D0A0262
:100D100090430843A06506E0A06D20221043A06523
:100D2000E06D0843E0652046FFF7C2FF20680560DC
:100D30002068016809060DD5406800060AD5A06D37
:100D4000012109040843A065204600F0FFF821684E
:100D50008020086020680168C90613D54168C9066B
:100D600010D5216C1025002902D0C168C90707D011
:100D7000E16D02221143E16505602046FFF79AFF0D
:100D80002068056070BD000070B5040006D0A06D3D
:100D9000264600254036002802D006E0012070BD1E
:100DA000E5653575204600F0D3F8A06DC00603D484
:100DB00021688868400705D5A06D10210843A0650B
:100DC0003575EBE7A06DFF220132904302221043FC
:100DD000A06588688207920F5948012A02D10A68E3
:100DE000D2072BD1032362699B079A4205D05B424D
:100DF0009A4202D05B009A4209D10A699200920895
:100E00000A6121680A6963691A430A610CE00A6988
:100E1000920092080A6181680F22920491438160D6
:100E200081686269114381602168CA6818239A4306
:100E3000CA602168CA68A3691A43CA60816801222E
:100E40005206914381608168A26C52061143816011
:100E500020688168C90004D4816801221207114307
:100E600081602068C168374A1140C160216A606AA8
:100E7000022923D000210843A16AA26B4903520032
:100E800011430843216C0843616C89030843E16CFA
:100E9000C90308432168CA681043C860206B014633
:100EA000FF39C23905D0616B08432168CA68104315
:100EB000C860E06A0121012802D00BE00421DAE7D2
:100EC000A06A002823D0A06D20221043A065E06D09
:100ED0000843E0656068012820681FD00169C907E0
:100EE00003D0016949084900016120684169C908C6
:100EF000C900416120684169E26911434161E565CA
:100F0000A06D80088000401CA065002070BD206896
:100F1000C26801231B041A43C260DBE702690A4B63
:100F20001A40026120680269A36826691A43E368CF
:100F300033431A430261206802690A430261D4E71D
:100F4000002701401902FEFF03FCFF7F70470000ED
:100F5000F0B5064600681B4985B0884230D11A4872
:100F6000416B4715394341631020009003200190E5
:100F70000025052069460295000700F09FFA1348F6
:100F8000134C21C42560E76080206560A0600001EB
:100F900020612020A56160610D48083C00F05CF9EB
:100FA000002803D081210BA002F060FC34650022F0
:100FB00011460C20A66200F08DFB0C2000F080FB97
:100FC00005B0F0BD002401400010024008000240BE
:100FD0008C0100202E2E2F5372632F6164632E63C9
:100FE00000000000F7B5044600680025806840074F
:100FF0003DD426464036307D01280AD0012737757A
:10100000E06C012807D02046FFF77CFC050002D0E9
:101010002EE00220FEBDA06D16490840FF210131DF
:101020000843A0650020E0653075216D1248C86254
:10103000216D12480863216D1148486321681C2006
:101040000860206841681022114341602068C1682F
:101050003943C1602168206D4031029B019A00F044
:1010600067F92068816804221143816000E002254D
:101070002846FEBDFEF1FFFF51080008D708000812
:10108000BD080008F8B5044672480168714A714EFF
:10109000704F08322068D3141C363037904201D18B
:1010A000082210E0B04201D180220CE0B84201D108
:1010B0001A4608E0674A4432904202D10122D20324
:1010C00001E00122D20425461140203500292DD00F
:1010D000016809072AD501680822914301605D492A
:1010E00020680831884201D1082010E0B04201D1C7
:1010F00080200CE0B84201D1184608E0554944313F
:10110000884202D10120C00301E00120C0045149FE
:101110004860A06B01210843A0630420687100208F
:101120002871616B002901D0204688474948026830
:101130004849206808310B15884201D1042110E08C
:10114000B04201D140210CE0B84201D1194608E07B
:1011500040494431884202D10121890301E0012143
:1011600089040A422AD00168490727D501688906FF
:1011700003D4026804218A4302603649206808319A
:10118000884201D1042010E0B04201D140200CE09F
:10119000B84201D1184608E02E494431884202D1B4
:1011A0000120800301E0012080042A4948600520D5
:1011B0006871216B002901D02046884725480268C4
:1011C000244920680831884201D1022311E0B0424D
:1011D00001D120230DE0B84202D101235B0208E0D7
:1011E0001C4B4433984202D101235B0301E00123ED
:1011F0005B041A422DD0026892072AD50268920633
:1012000003D4026802239A4302602068884201D115
:10121000022011E0B04201D120200DE0B84202D1FD
:101220000120400208E00B494431884202D10120EC
:10123000400301E00120400406494860A06BA06320
:101240000120687100202871E16A002901D0204640
:101250008847F8BD0000024070B5002805D002465E
:1012600020325179002902D003E0012070BD002115
:10127000117102215171046823682B49C5680B4024
:1012800081684669294305693543294385692943AE
:10129000C5692943056A2943194321602349234C21
:1012A00003687831A34206D18B6A1B091B018B624C
:1012B0008B6A406831E01D4C1434A34207D18B6A1D
:1012C000F024A3438B628B6A4068000125E0174C31
:1012D0002834A34208D18B6A0F242402A3438B62D3
:1012E0008B6A4068000218E0104C3C34A34208D1DD
:1012F0008B6A0F242403A3438B628B6A406800032C
:101300000BE00A4C5034A34209D18B6A0F24240409
:10131000A3438B628B6A8088000403438B620120A5
:101320005071002070BD00000FC0FFFF0800024098
:10133000F8B5044620300579012D1ED00125057130
:101340000226467120680768AF4307602046FFF712
:1013500027FB20680168314301602068016804228E
:101360001143016020680168082211430160206870
:101370000168294301600020F8BD0220F8BD00008B
:1013800070B5074D04462846FFF7C0FB002805D17D
:101390000449486120602846FFF7B8FB70BD000093
:1013A00050C3000044030020034841680122114358
:1013B000416000207047000000200240F8B5124D47
:1013C0000746287C14460E46012807D001202874C1
:1013D0000E48FFF79BFB002802D012E00220F8BD68
:1013E00000206861022F04D0012F04D0002F04D008
:1013F00004E0346002E0348000E034700348FFF71A
:1014000085FB00212974F8BD4403002050C300006F
:1014100005484168C90705D00449C1600449C16055
:10142000002070470120704700200240EFCDAB89BB
:101430000504030270B502282CD1174A1078002841
:1014400028D1052424072069012186070023C90328
:1014500012480125002E0CDA114A1380002200F0F8
:10146000DBF82068800880002843206060692843FA
:101470000FE05678002E01D0537002E0012200F0F8
:10148000CBF820688008800028432060606940080D
:101490004000606170BD0000700000200008005036
:1014A0000E00002010B504494A69024202D048618A
:1014B000FFF7C0FF10BD000000040140F8B5002395
:1014C000012498E027469F403A4070D04D68022D95
:1014D00001D0122D14D1DD08AD002D1800952D6A14
:1014E0005E07AC46F50E0F26AE46AE406546B543E8
:1014F000AC460E697546AE4065462E43009D2E6291
:101500004D68012D05D0022D03D0112D01D0122DD3
:1015100016D185680326AC465D00AE46AE406546F2
:10152000B543AC46CE687546AE4065462E438660F0
:1015300046680D79BE43ED06ED0F9D40354345608D
:1015400006685F000325BD40AE46AE430D79B44644
:10155000AE07B60FBE4065462E430660C6687546A8
:10156000AE438D68BD403543C5604D68ED0041D543
:10157000244D6E6B26436E639E08234DB60075198D
:10158000AC46AD689E07360F0F27B740BD43052711
:101590003F07B84201D100270BE01C4FB84201D1F0
:1015A000012706E01A4FB84202D1022701E021E0EC
:1015B0000627B7402F436546AF60164D2E684F682B
:1015C0009643FF0300D516432E606E684F6896431E
:1015D000BF0300D516436E60AE684F689643FF02A6
:1015E00000D51643AE60EE684F689643BF0200D543
:1015F0001643EE605B1C0A681546DD4000D061E7CB
:10160000F8BD00000010024000000140000400503E
:101610000008005000040140002A01D08161704799
:101620008162704701480068704700007800002020
:1016300002480168491C01607047000078000020E2
:1016400010B506480168402211430160002000F0F7
:1016500007F800F019F8002010BD0000002002403B
:1016600010B5044607487D21C9000068FEF75EFDFD
:1016700000F0E4FB00222146501E00F02BF8002071
:1016800010BD00007C00002010B50C48416B012209
:1016900011434163816B02041143816300221146AF
:1016A000501F00F017F800221146901E00F012F8AB
:1016B00000221146501E00F00DF810BD001002402F
:1016C000C106C90E0120884001490860704700002A
:1016D00000E100E010B501F0C5FA10BDF8B5044610
:1016E0000078494D800660D5474E403E316803275B
:1016F00020693F05024639403A40914208D08003B4
:10170000800F032804D13068800301D50120F8BD83
:10171000B06B012109070843B0633C48016882159A
:1017200011430160FFF77EFF009005E0FFF77AFFAD
:101730000099401A642823D834480068C005F5D5BC
:10174000286903210904226908400A4090422CD0EC
:1017500028692A6988430121C9040A432A612A6940
:101760008A432A61286180050FD5FFF75BFF00904F
:1017700008E0FFF757FF0099411A2548814201D937
:101780000320F8BD28698005F3D520698103890FFE
:10179000032933D03068B84330602969032000043E
:1017A000226981430240114329612078800705D5D1
:1017B000E8680C21884361680843E86020784007A6
:1017C00006D5E868032189028843A1680843E860D8
:1017D0002078000706D5E868032109038843E168FB
:1017E0000843E8602078000606D5E86803218904EC
:1017F000884361690843E8600020F8BD31683840DB
:10180000B94301433160C8E7401002400070004016
:1018100088130000F8B5054653480E460068C00717
:10182000C00FB0420AD2504801684908490031430C
:1018300001600068C007C00FB0426FD128784B4CE0
:10184000800705D5E068F0218843A9680843E06077
:101850002878C00752D06868022817D0002818D00E
:101860002168032818D04907002957DAE168890858
:1018700089000143E160FFF7D5FE69680746022948
:1018800012D003291CD0002926D032E02168890318
:10189000EAE721688905E7E78901E5E7FFF7C2FE86
:1018A000C11B3348814222D8E0680007800F02281C
:1018B000F4D123E0FFF7B6FEC11B2D48814216D8B4
:1018C000E0680007800F0328F4D117E0FFF7AAFEB5
:1018D000C11B274881420AD8E0680007800FF5D174
:1018E0000CE0FFF79FFEC11B2148814201D9032074
:1018F000F8BDE0680007800F0128F2D11A4801689E
:10190000C907C90FB1420BD30168490849003143E7
:1019100001600068C007C00FB04201D00120F8BDCF
:101920002878400706D5E068072109028843E9685E
:101930000843E0602878000707D5E0680721C9025E
:1019400088432969C9000843E06000F03DF8E16878
:10195000084A0906090F515CC84007490860002081
:10196000FFF77EFE0020F8BD00200240001002407C
:1019700088130000683E00087C00002001480068D1
:10198000704700007C000020044805490068C968D1
:10199000044A4905490F515CC84070477C0000204B
:1019A00000100240813E0008044805490068C968EB
:1019B000044A8904490F515CC84070477C000020EC
:1019C00000100240813E000810B51A4A5068D368E2
:1019D0000004410F0C200340174805D0042B06D00B
:1019E000082B0BD00C2B0BD0491C884010BD106865
:1019F000C00601D5114810BD114810BD114810BDD9
:101A0000D068D1688002104B000F185C0902D368BF
:101A1000890F01242404491C234204D11268D206F0
:101A200003D5064A02E0074A00E0054A5043FEF7A4
:101A30007DFB10BD001002400080000000093D0049
:101A40000024F40000127A00783E0008FEB5044637
:101A50000078EC4DC0074DD0E8680007800F0228E1
:101A600007D0E8680007800F032809D1E868C003A1
:101A700006D5286880033DD56068002875D039E018
:101A8000012062680004824203D129680143296071
:101A900014E0052301211B0489049A422A6805D118
:101AA00082432A602A680A432A60EEE782432A605A
:101AB0002A680240009228688843286060680028ED
:101AC0000CD0FFF7AFFD064604E0FFF7ABFD801B2F
:101AD00064287DD828688003F7D50BE0FFF7A2FDC6
:101AE000064604E0FFF79EFD801B6428F1D82868B5
:101AF0008003F7D42078800740D5E8681F270007C7
:101B0000800F3F02012807D0E8680007800F0328F4
:101B100009D1E868C00306D42868400717D5E068F3
:101B2000012822D113E0E1680920002916D02A6893
:101B300082430A432A60FFF775FD064604E0FFF77B
:101B400071FD801B0228C4D828684007F7D5686853
:101B50002169B8430902084368600FE0296881439E
:101B60002960FFF75FFD064605E09DE0FFF75AFD9F
:101B7000801B0228ADD828684007F7D42078A24FF0
:101B8000C00656D5E8680007800F09D0A069002874
:101B9000286840D038432860FFF744FD064628E017
:101BA0002868800502D5A06900287DD068680721D3
:101BB00049038843216A084368606868217F0002FE
:101BC000000A090608436860FFF7FEFEE96800E0C6
:101BD0009DE009068D4A090F515CC8408C49086098
:101BE0000020FFF73DFD24E0FFF71CFD801B0228CD
:101BF000A9D828688005F7D5686807214903884374
:101C0000216A084368606868217F0002000A0906AB
:101C1000084368600DE0B8432860FFF703FD0646FF
:101C200004E0FFF7FFFC801B022870D828688005BD
:101C3000F7D42078774E000724D5606900283069F2
:101C400010D0012108433061FFF7ECFC009005E063
:101C5000FFF7E8FC0099401A022858D8306980073D
:101C6000F6D50FE0400840003061FFF7DBFC009044
:101C700005E0FFF7D7FC0099401A022847D83069E1
:101C80008007F6D42078400771D50020029001909B
:101C9000A86BC00006D4A86B012109070843A863FC
:101CA000012002905C4800E0A9E00068C00513D460
:101CB000594801683943016001200190FFF7B2FCE7
:101CC000009005E0FFF7AEFC0099401A64281ED88A
:101CD00051480068C005F5D5A068B84202D1306906
:101CE00038430CE001218902002803D005221202AA
:101CF00090420DD03069B84330613069884330611B
:101D0000A068002816D0FFF78DFC00900EE06FE071
:101D10003069B8433061306908433061DFE7FFF76D
:101D200081FC0099411A3D48814261D830698005A3
:101D3000F5D50DE0FFF776FC009006E0FFF772FCAA
:101D40000099411A3548814252D830698005F5D44E
:101D50000198002803D030480168B9430160029817
:101D6000002804D0A96B012000078143A963606AA1
:101D7000002842D0E9680907890F03293FD00126CE
:101D800036060228286805D0B0432860FFF74AFCD1
:101D900004462FE0B0432860FFF744FC074604E008
:101DA000FFF740FCC01B022822D828688001F7D426
:101DB000216BE06AEA680843A16AFD231B049A4389
:101DC00011430843E860286830432860FFF72AFC85
:101DD000044604E0FFF726FC001B022808D8286808
:101DE0008001F7D509E0FFF71DFC001B022801D98F
:101DF0000320FEBD28688001F5D40020FEBD01202F
:101E0000FEBD00000010024000010000683E000816
:101E10007C00002040100240007000408813000049
:101E2000042204490428086902D0904308617047DD
:101E30001043FBE700E000E070470000094910B5DF
:101E4000401E884201D9012010BD074C606103216A
:101E5000081F00F007FF0020A0610720206100207C
:101E600010BD0000FFFFFF0000E000E010B5FFF72D
:101E7000E3FF10BD70B502462032137D012B1BD04D
:101E80000123137502245475046865687026B543F0
:101E90006560046865680E68354365600468A56818
:101EA0008026B543A5600068846849680C43846057
:101EB00053750020107570BD022070BD70B5040010
:101EC00005D025462035687D002802D006E0012097
:101ED00070BD00202875204600F00AF802206875C1
:101EE000211D206801F0FAF801206875002070BDFE
:101EF00070B505460122016892071D48914226D11E
:101F0000816B0122114381631B4C1A482060082019
:101F100060601020A060802121610020E0608900C5
:101F200061618900E061A16120622046FFF794F9B8
:101F3000002803D09B2111A001F098FCEC61002245
:101F400011460F20A562FFF7C5FB0F200CE00F4ADA
:101F500091420BD1416B042211434163002211468F
:101F60001420FFF7B7FB1420FFF7AAFB70BD000099
:101F70000010024058000240F00000202E2E2F5387
:101F800072632F74696D2E63000000000008014029
:101F90000268D36801210B43D360006802680A43DA
:101FA00002600020704700000168CA6852085200B1
:101FB000CA600068016A044A114203D101684908F5
:101FC000490001600020704711110000F8B5054676
:101FD00004462035287D012817D001272F750220BF
:101FE0006875226890687726FF23B0431B029843E8
:101FF00090600868502837D00EDC202857D006DCC7
:1020000000284ED0102840D14EE00220F8BD3028E4
:1020100050D0402839D13CE060282DD0702817D00E
:1020200001221203801A0ED090422ED1CB684A684A
:102030008968206801F0A4F8206881680122920371
:102040001143816021E020688168C908C900F8E770
:10205000CB684A688968206801F092F8216888682E
:10206000B0433043886010E0CA684968206801F0D6
:1020700001F95021206806E0CA684968206801F02B
:102080000AF96021206801F086F86F750020287534
:10209000F8BDCA684968206801F0ECF84021206862
:1020A000F1E700212068EEE710212068EBE720210E
:1020B0002068E8E730212068E5E77047704770B591
:1020C0000446006801690025C9438907002915DB1A
:1020D000C168C943890711D4E91E01610120207537
:1020E000206880698007204602D0FFF7E7FF04E000
:1020F00000F08EF8204600F00FF925752068016980
:10210000C943490717D4C168C943490713D40421F7
:10211000C943016102202075206880698005800F15
:10212000204602D0FFF7CAFF04E000F071F8204615
:1021300000F0F2F8257520680169C943090716D433
:10214000C168C943090712D40821C94301610420A9
:1021500020752068C0698007204602D0FFF7AEFFD7
:1021600004E000F055F8204600F0D6F82575206808
:102170000169C943C90617D4C168C943C90613D444
:102180001021C9430161082020752068C0698005BD
:10219000800F204602D0FFF791FF04E000F038F8EE
:1021A000204600F0B9F8257520680169C943C907C0
:1021B00008D1C168C943C90704D1891E01612046FD
:1021C00000F066F920680169C943490609D4C1686D
:1021D000C943490605D44021C9430161204600F0A6
:1021E0006FF970BD00B500680121890785B088428C
:1021F0000CD1012000900020022102900390019157
:102200000491052069460007FFF758F905B000BDA5
:102210007047F8B5064604462036307D0D46012845
:102220000DD001203075022070750427002A08D0D7
:10223000042A16D0082A2AD00C2A4DD137E00220D1
:10224000F8BD206800F0AFFF2068816908221143C3
:10225000816120688169B943816120688169EA6888
:1022600012E0206800F0B7FF206882690121C902EE
:102270000A4382612068816901229202914381614F
:1022800020688169EA6812021143816124E02068B4
:1022900000F0BAFF2068C26908210A43C2612068C1
:1022A000C169B943C1612068C169EA6812E0206868
:1022B00000F0C5FF2068C1690122D2021143C1614B
:1022C0002068C269012189028A43C2612068C1690C
:1022D000EA6812021143C161012070750020307557
:1022E000F8BD70B5040005D025462035687D00286E
:1022F00002D006E0012070BD00202875204600F0C5
:102300000AF802206875211D206800F0E7FE012010
:102310006875002070BD704770B50120094C0A4DEA
:102320006070C10300222846FFF776F900210748B4
:1023300000F07CF8012291032846FFF76DF9002098
:10234000207070BD70000020000800508000002048
:1023500070B504460E462030417D1546022903D053
:10236000417D012902D009E0022070BD002D03D17A
:10237000002B01D0012070BD0221417529482A4956
:10238000002E06D0042E13D0082E2DD00C2E1FD1D7
:1023900039E0E269D062E06941632268294634325B
:1023A000E069FEF7C5FF2068C168012252020DE016
:1023B000226AD062206A4163226829463832206A44
:1023C000FEF7B6FF2068C168012292021143C16086
:1023D00001223146206800F0A1FE20680168012238
:1023E00011430160002070BD626AD062606A41637F
:1023F000226829463C32606AFEF79AFF2068C1686D
:102400000122D202E2E7A26AD062A06A4163226896
:1024100029464032A06AFEF78BFF2068C16801227E
:102420001203D3E7333100087131000810B5026898
:102430000446002906D0042908D008291DD00C29FB
:1024400009D11EE0D06801235B0202E0D0680123BD
:102450009B029843D0600022206800F05FFE206855
:10246000016A0A4A114203D1016849084900016022
:10247000012020346075002010BDD0680123DB02EC
:10248000E7E7D06801231B03E3E700001111000018
:1024900010B50848007800280BD005200007006917
:1024A0000549C207054801D0002200E00122FFF7DC
:1024B000B3F810BD7000002000800000000800503C
:1024C00070477047704770B504460068C16926467A
:1024D000C90720256036002909D00168C90506D53D
:1024E00001210162E06E0843E0667572B5722068F2
:1024F000C16904228B070221002B08DA8368DB07FD
:1025000005D00162E06E1043E0667572B572206816
:10251000C3695B0708D58368DB0705D00262E06EFC
:102520000843E0667572B5722068C169090709D56C
:102530008168C90706D008210162E06E0843E066A1
:102540007572B572E06E002804D07572B5722046BF
:10255000FFF7B8FF2068C169C9020AD5816849023E
:1025600007D50121090501627572B5722046FFF792
:10257000A8FF2068C169890605D50068800602D5D4
:10258000204600F05CFF2068C169090605D5006897
:10259000000602D5204601F0D5F82168C86940063A
:1025A0000AD50868400607D50868402290430860AD
:1025B0007572204600F0D2F970BD70B5040005D0E8
:1025C00025466035687A002802D006E0012070BDFB
:1025D00000202872204600F025F824206872206828
:1025E0000168490849000160204600F06DFF606AFB
:1025F000002802D0204600F061FE206841680922D0
:10260000D20291434160206881682A22914381600F
:1026100020680168012211430160204600F0B4FEE9
:1026200070BD0000F0B5064600682A4985B08842B2
:102630004ED12948816B012252041143816303204A
:10264000400200900220019001200290032003909C
:1026500004250520694604950007FEF72FFF1F4853
:102660001F4C802721C410200025A1C4256065606F
:10267000A560E5601A48143CFEF7EEFD002803D083
:10268000702118A001F0F2F83466A6621348144CC9
:1026900014303C342060A560E5606561276104204A
:1026A000A561606020202562E0612046FEF7D4FD30
:1026B000002803D081210BA001F0D8F87466002215
:1026C00011461C20A662FFF705F81C20FEF7F8FF54
:1026D00005B0F0BD00440040001002401C00024064
:1026E000380200202E2E2F5372632F75736172747F
:1026F0002E63000070B5034660339C7A202C43D1D2
:10270000002914D0002A12D01C7A012C3CD00124BC
:102710001C724165014640310A834A838268260360
:10272000FF25B24207D10269002A02D02AE0012027
:1027300070BD164A0AE07F26002A1ED001252D070B
:10274000AA4204D10269002A1AD03F228A830022B9
:10275000C2662221997201680D68FF260136354351
:102760000D6001688D6825438D601A7200680168EC
:10277000202211430160002070BD0269002A01D0AF
:102780008E83E4E78D83E2E7022070BDFF01000045
:10279000F8B54E4C0025E0784D4F002809D04D4843
:1027A00000F084FA032001F095F83868002875D00D
:1027B0008AE04948FFF7F8FB46490422A25608463A
:1027C0000A3000900126801E130001F067F81912EC
:1027D0000E12161F252B31373D3D3D3D3D534348DD
:1027E0004C505779796A6F737900E670012200992D
:1027F00055E0E6700222374951E03748FFF7D4FB35
:1028000034491422E6700C31344857E0314914221F
:10281000E6702031314851E02E491422E6703431FF
:102820002E484BE02B491422E67048312B4845E0F6
:1028300028491422E6705C3128483FE025490422EB
:10284000E6707031254839E0E57020E01F4901222B
:10285000091D24E00222E5702048891D15E0E5707D
:102860000222014610E0E570012200990CE0E570BB
:10287000022201E0E5707422164905E01420134994
:10288000E57001226071491D144800F029F838688C
:102890000028DBD11048FFF77BFBD7E711E00F489A
:1028A0000CE00222E6700D48891D07E0E670022266
:1028B0000146F4E7E67002220848891CFFF71AFF78
:1028C000F8BD0548FFF764FBE570BFE77000002026
:1028D00000080140D0020020B8000020C8010020FC
:1028E000F8B5054604466035687A20282ED10029BF
:1028F0002AD0002A28D0287A012827D0012028723F
:1029000020464030E164028242820026E6662120B1
:102910006872236E0E48D862236E0E481863236EC9
:102920000D485863276813463A462832206EFEF752
:10293000FFFC2168402008622068816880221143E2
:1029400081602E720020F8BD0120F8BD0220F8BD84
:102950000534000835340008E1330008704770473B
:10296000FEE7000010B502497422FDF7F5FB10BD2B
:10297000000008081CB519491948012206C00C219D
:102980000160002141608160C1604261016182613A
:10299000C1614162FF23C233026283620263C1628A
:1029A0008163C16304220164426341640838FEF715
:1029B000EBF9002803D052210AA000F057FF0D4880
:1029C00000900014019069460548FEF727F9002899
:1029D00003D05B2103A000F049FF1CBD002401408F
:1029E0002C0100202E2E2F5372632F6164632E63FF
:1029F000000000001000001008B51048016B012213
:102A000011430163006B1040002200901146092021
:102A1000FEF760FE0920FEF753FE002211460A2051
:102A2000FEF758FE0A20FEF74BFE002211460B204F
:102A3000FEF750FE0B20FEF743FE08BD00100240DB
:102A4000F0B5254887B0C26A04210A43C262C26A4F
:102A50000A400592C16A01242143C162C06A002272
:102A600020400590E1031D48FEF7D6FDA70303258E
:102A7000002669461948009702960195FEF71EFD4B
:102A8000E0036A46039551C269461448FEF716FDF5
:102A9000019469461148009703950294FEF70EFDD4
:102AA000022000900E4805242407019069460296F2
:102AB0002046FEF703FD80206A4661C26946204633
:102AC000FEF7FCFC002211460520FEF703FE052060
:102AD000FEF7F6FD07B0F0BD001002400008005000
:102AE0000000311010B5184886B016490160002466
:102AF00001218460416015490461C160FFF7DEF97E
:102B0000002803D0712112A000F0B0FE01200003C4
:102B1000009069460C48FFF759FA002803D0772146
:102B20000BA000F0A3FE049404A907480594FFF746
:102B3000A1F9002803D07E2105A000F097FE06B081
:102B400010BD000000080140B8000020C4090000CA
:102B50002E2E2F5372632F74696D2E6300000000B8
:102B600010B5012125488AB0890701600024244955
:102B700084604160F921C160012149020161FFF7D0
:102B80009DF9002803D043211EA000F06FFE012014
:102B90000003049004A91948FFF718FA002803D08D
:102BA000492118A000F062FE1448FFF79AFB0028A4
:102BB00003D04E2113A000F059FE089408A90F4835
:102BC0000994FFF757F9002803D055210DA000F014
:102BD0004DFE602000900194029400226946039407
:102BE0000648FFF716FB002803D05E2105A000F081
:102BF0003DFE0248FFF7F6FA0AB010BD8000002043
:102C00007F3E00002E2E2F5372632F74696D2E634A
:102C10000000000010B50D480B4901607D2109033B
:102C2000416000218160C16001618161C1610C224C
:102C3000016242614162FFF7C0FC002803D04721D6
:102C400003A000F013FE10BD00440040C8010020A6
:102C50002E2E2F5372632F75736172742E630000D2
:102C6000704700008307FF22DB0E9A408907090E98
:102C7000994000280BDA0007000F0838830808483D
:102C80009B001818C36993430B43C36170478308C3
:102C900004489B001B18186890430843186070474D
:102CA00000ED00E000E400E070477047F8B50F4C1D
:102CB00006462546FEF7ACFB2046FEF761FB0027E3
:102CC0002846FEF75DFB3F1DFFB22D1D742FF7D385
:102CD0000025214602203268FEF770FB241D6D1C82
:102CE000361D1D2DF5D3FEF75FFBF8BD000008086B
:102CF00010B5FEF79DFCFFF7B9F810BD30B52248BE
:102D000099B001680322D2029143C214891801606C
:102D100002250120039010200995049080030B9058
:102D20000001009500240C900A946846FEF78EFE80
:102D3000002800D0FEE70F200D9003200E900F9486
:102D40001094012111940DA8FEF764FD002800D015
:102D5000FEE712A812951394FEF7C0FC002800D0DD
:102D6000FEE7FEF70BFE7D21C900FDF7DFF9FFF757
:102D700065F80420FFF754F800221146501EFEF7B4
:102D8000A9FC19B030BD0000007000401048016877
:102D9000821511430160C1680E4A1140C16001688B
:102DA0000D4A11400160816849084900816001684D
:102DB0000122920491430160C168FD2212049143F3
:102DC000C160002101610549C003886070470000AF
:102DD000001002400C40FF88F6FFF6FE00ED00E018
:102DE000F8B5A74C0025A0890127002814D0401C65
:102DF00080B219218902A08188420DD9A78160780B
:102E0000401CC0B26070042804D89E48007800F0CE
:102E100061FD01E06570A5819B48007800280FD115
:102E200060891921C901884201D2401C608180B2A9
:102E3000884205D101210022C9039448FEF7ECFB2A
:102E400093480068FDF7C0FB9249FDF702FA9249EA
:102E5000FDF73CFA914A9249606300F0D1FD904938
:102E6000904A1431206200F0CBFD8D4960628E4A99
:102E70002831606B00F0C4FD89498C4A3C31A06266
:102E800000F0BEFD4100E062606A49084000400871
:102E9000FDF7D7F98249864A5031A06300F0B0FDB2
:102EA0008449206300200856092806D00B2808D042
:102EB0000C287DD00D280AD18BE0714904223031D5
:102EC00002E06F49042224317B48FFF709FD744E6C
:102ED000A0780C3E00286CD07088218A884228D9BE
:102EE000316F206BFDF7BCFB05D8A088401CA0808B
:102EF0007F20C005E0610121306FC9074840216B88
:102F0000FDF7AEFB04D8E088401CE0806B48E06130
:102F1000316F206BFDF79AFB0BD20121306FC9078F
:102F20004840216BFDF792FB03D22089401C208191
:102F3000E5617188208A81427DD12078102876D27F
:102F4000A088E288904218D92289904215D9490870
:102F5000814212D2A08A40003843A082012000F0B2
:102F600037FDE082564920780F54401C20704448B9
:102F70000121143000F014FD6082E088A1888842AD
:102F800012D9218988420FD97188490881420BD210
:102F9000A08A4000A082002000F01AFDE08248498B
:102FA00020780D54401C20702089E188884201E07F
:102FB0000BE012E03BD9A188884238D9E178491C5E
:102FC0000906090EE1701AD025E02D4904222C31A2
:102FD0007AE72B490422343176E7316F206BFDF715
:102FE0003FFB07D90121306FC9074840216BFDF72E
:102FF00037FB20D82582A770E56325641BE0718824
:103000004908814207D2002000F0E2FCE0822078EB
:10301000401C20700BE0A580E5802581E570A5703F
:103020002582A582257010212548FDF7AEF8A580E0
:10303000E58025812582208A401C20822078102866
:103040001AD1A08A0E49020A0E310A7048702083F4
:103050003188814203D1A781022000F03BFCA08A85
:103060001849884201D0002803D1A781012000F02F
:1030700031FCA570A58225701348FFF720F8F8BD34
:1030800004000020720000207000002000080050A2
:10309000000000200000404000F07F474800002072
:1030A000DC020020500000205800002060000020BA
:1030B0006800002074000020C8010020000080BFCC
:1030C000B0020020FFFF0000B800002010B5024849
:1030D000FEF7F5FF10BD00008000002030B502684B
:1030E00001239B070C4C984201D0A04203D17025CC
:1030F000AA434D682A43984201D0A04204D1032339
:103100001B029A43CB681A4302608A68C26209684C
:1031100081620121416130BD0008014010B50123E9
:10312000046A8B409C430462036A8A40134303622F
:1031300010BD10B5846A012135221155E269824221
:1031400001D121750EE0216A814201D1022008E0FF
:10315000616A814201D1042003E0A16A814201D168
:10316000082020752046FFF7D7F80020207510BDF5
:1031700010B5806A012235210A54FEF79EFF10BD6A
:1031800030B58468FF252D021B021343AC430B436B
:103190002343836030BD826870239A430A4307212A
:1031A0000A438260704730B5026A520852000262D8
:1031B000026A456883697024A3439C080B68A400D5
:1031C00023430224A2438C68456014438361496809
:1031D0004163046230BD30B5026A10239A43026233
:1031E000036A4568826973242402A2430C6824029E
:1031F0001443202293438A68456012011A43846174
:1032000049688163026230BD30B5026AFF23013331
:103210009A430262026A4568C3697024A3439C080A
:103220000B68A400234301246402A2438C68456018
:1032300024021443C3614968C163046230BD30B5E0
:10324000026A01231B039A430262036A4568C2694A
:1032500073242402A2430C68240214430122520363
:1032600093438A68456012031A43C4614968016444
:10327000026230BD30B5036A046A64086400046207
:103280008469F025AC43120122430A24A3430B4373
:103290008261036230BD30B5036A1024A343036228
:1032A0008469036A0F252D031203AC432243A02433
:1032B000A343090119438261016230BD10B5818CBD
:1032C000C90707D001684A6801235B049A43836AEF
:1032D0001A434A60818C890707D501684A6801232F
:1032E0001B049A43C36A1A434A60818C490707D575
:1032F00001684A6801239B049A43036B1A434A609E
:10330000818C090707D501684A680123DB039A43CA
:10331000436B1A434A60818CC90607D502689168DD
:1033200001231B039943836B19439160818C8906A8
:1033300007D501688A6801235B039A43C36B1A436C
:103340008A60818C490612D503685A6801210905F3
:10335000046C8A4322435A60026C8A4207D1026895
:10336000516803235B059943436C19435160818C79
:10337000090607D501684A680123DB04806C9A437B
:1033800002434A6010BD000070B504460068006842
:10339000124D000708D501212B4600224905204681
:1033A00000F003FA00280CD12068006840070AD515
:1033B00001212B4600228905204600F0F6F900285D
:1033C00001D0032070BD0021204660300172E1660B
:1033D000202141728172002070BD0000F055000074
:1033E00010B5806A0022014640314A834A82202279
:1033F00020314A728A72C16E10221143C166FFF7F2
:1034000061F810BD10B501460968806A096889062F
:103410000DD4002252210A5201688A6880239A43FF
:103420008A600068016840221143016010BDFFF707
:1034300095FA10BD10B5806AFFF791FA10BD70B50E
:103440000246403201466031938B8D7A0C4601680A
:10345000222D05D08869082210438861022070BDA2
:10346000012685683603B54202D10569002D0CD0CE
:103470004D6A416D1D404B1C43650D70518B491EBB
:103480000904090C518308D01CE0456D496A1940B4
:103490002980416D891C4165F0E70168CA6992067F
:1034A000FCD40B68202293430B6001680B68D500A5
:1034B000AB430B6001688B685B085B008B60A2729A
:1034C000FFF766F9002070BDF8B504462669A368C9
:1034D000E7693343666900203E43256833438E4ADB
:1034E0002E6801468D4F3E401E432E6025686B6856
:1034F00003263603B343E66833436B602568A3694C
:10350000954201D0266A3343AE680B273F02BE4383
:103510001E43AE60824E2568824BB5420AD1DB68FD
:103520000C26334016D0042B32D0082B2ED00C2B77
:1035300010D10EE095420DD1DE6803239B021E40A0
:1035400008D001239B02F61A22D0F61A1ED09E4202
:1035500000D10820734F403F95427DD100260028BE
:1035600018D0022832D0042858D0082855D16468D1
:103570002046FDF731F807460091F107600808433F
:103580007108FDF737F80022674B3DE00220E1E7C4
:103590000420DFE767683846FDF71EF8054600910E
:1035A000F107780808437108FDF724F806460F462E
:1035B000FEF7EAF9FDF710F80822FCF7EFFF3246B4
:1035C0003B46FCF7C1FE2A46009B42E0386864682F
:1035D000C00620460CD5FCF7FFFF07460091F10717
:1035E000600808437108FDF705F800224F4B0BE017
:1035F000FCF7F2FF07460091F107600808437108E5
:10360000FCF7F8FF00224A4BFCF79EFE3A46009B6F
:10361000FCF74CFFFCF7FCFFE860F8BD6768384634
:10362000FCF7DAFF05460091F107780808437108B6
:10363000FCF7E0FF06460F46FEF7C6F9FCF7CCFFA5
:103640000822FCF7ABFF32463B46FCF77DFE2A46DC
:10365000009BFCF72BFF00E004E0FCF7D9FF21689A
:10366000C860F8BD0122E369D20393422CD1030064
:1036700000F014F90906090C191F19191925190068
:10368000FEF782F917E0FEF78FF914E038686168F9
:10369000C00602D54808274A01E0274A4808801892
:1036A000FCF744FD81B20A0912010807400F1043DC
:1036B000D5E7FEF789F9616840004A08EFE76168DD
:1036C000012248081204EAE7030000F0E7F80907BE
:1036D0000A0D061A060606220600C2E7FEF754F98E
:1036E00011E0FEF761F90EE038686168C00602D5A6
:1036F0004808124A01E0124A48088018FCF716FDF3
:103700008AE7FEF761F961684A088018FCF70EFD48
:10371000A5E761684808F0E700480040F369FFEF5B
:103720000044004040100240000060418084CE41CF
:103730008084EE4100127A000048E80100093D0053
:103740000024F4006921095C212901D0022070477E
:1037500002464032518A002912D0012381681B039E
:10376000994202D10169002915D0C16C4B1CC36478
:10377000006809788162508A401E5082002070479C
:1037800001680A6880239A430A6000680168402241
:1037900011430160F2E7C16C03680988C905C90DCE
:1037A0009962C16C891CC164E5E7F8B51E461546EF
:1037B0000F460446FDF736FF294625466035009042
:1037C00000291AD043E0701C17D0002E05D0FDF759
:1037D00029FF0099401AB0420FD920680268802161
:1037E0008A43026021680A68202082430A602168B7
:1037F0000B68C20093430B601EE02068C169384625
:103800008843E0D128E0701C21D0002E05D0FDF7C0
:1038100009FF0099401AB04219D920680168802236
:103820009143016021680A68202082430A60216870
:103830000A68C3009A430A6021688A6852085200E5
:103840008A606872A872002028720320F8BD206880
:10385000C16938468843D6D00020F8BD10B502486B
:10386000FEF731FE10BD0000C8010020FEE7202158
:10387000020C01D010211046020A01D0104608396E
:10388000020901D01046091F820801D01046891E86
:10389000420801D0881E7047081A704730B4744639
:1038A000641E2578641CAB4200D21D46635D5B003C
:1038B000E31830BC184702E008C8121F08C1002AEC
:1038C000FAD170477047002001E001C1121F002AA1
:1038D000FBD17047F8B5052107460907086802269D
:1038E00080088000304308600123284AD903284813
:1038F000002F12D0274C4D10012F16D0022F2AD0A6
:10390000032F41D113700122FDF786FE00212248CA
:10391000FEF78CFD0523214A32E013700122FDF7EA
:103920007BFE1E4A0523143A2AE09370137001228D
:103930000646FDF771FE00211748FEF777FD207857
:10394000002804D1002229463046FDF765FE134ABF
:103950002923143214E01370967001220646FDF7F5
:103960005BFE00210C48FEF761FD2078002804D1A1
:10397000002229463046FDF74FFE084A2523B8327B
:1039800000210548FEF7E4FCF8BD000070000020AF
:103990000008005005000020800000201C3D0008A9
:1039A00070B50A4DFF24EE1D2246F93605E0037876
:1039B0006340EC5C6240F45C401C0B46491E89B2DB
:1039C000002BF4D12002104370BD0000083B00081A
:1039D00010B50A4A0F215418203CE47F5454491E64
:1039E0000906090EF7D110704004030C505C491C05
:1039F0001843C9B21029F7D310BD0000C00200203F
:103A0000F7B58AB017680697506803900C461546BC
:103A1000161D09683846FCF71CFC0A99FCF715FCD2
:103A2000029061680398FCF714FC0299FCF70DFC06
:103A30000490A168FCF70DFC02903846E168FCF7A1
:103A400008FC0299FCF7ACFB074621690398FCF7D8
:103A500000FC3946FCF7A4FB069F0146376004983A
:103A6000286008460DB0F0BDFDF7EAFDFFF746F906
:103A7000FEF7E6FFFEF7C0FFFEF77CFFFFF770F8EA
:103A8000FFF730F8FFF7C6F8164C012291032046E5
:103A9000FDF7C2FD002221012046FDF7BDFD1248C1
:103AA000006800281AD01148FEF75CFF104900207A
:103AB000087001220F491048FEF71CFE01210F4833
:103AC000FDF764F801220E490C48FDF78BFA00203F
:103AD000FFF700FF0B48FEF75BFAFEE7FCF770FF0D
:103AE000E4E700000008005000000808D0020020B1
:103AF0007300002074000020C80100202C01002069
:103B000000000020B800002000C1814001C08041B9
:103B100001C0804100C1814001C0804100C181409D
:103B200000C1814001C0804101C0804100C181408D
:103B300000C1814001C0804100C1814001C080417D
:103B400001C0804100C1814001C0804100C181406D
:103B500000C1814001C0804100C1814001C080415D
:103B600001C0804100C1814000C1814001C080414D
:103B700001C0804100C1814001C0804100C181403D
:103B800000C1814001C0804101C0804100C181402D
:103B900000C1814001C0804100C1814001C080411D
:103BA00001C0804100C1814000C1814001C080410D
:103BB00001C0804100C1814001C0804100C18140FD
:103BC00000C1814001C0804100C1814001C08041ED
:103BD00001C0804100C1814001C0804100C18140DD
:103BE00000C1814001C0804101C0804100C18140CD
:103BF00000C1814001C0804100C1814001C08041BD
:103C000001C0804100C1814000C0C101C30302C2A4
:103C1000C60607C705C5C404CC0C0DCD0FCFCE0E0C
:103C20000ACACB0BC90908C8D81819D91BDBDA1A7C
:103C30001EDEDF1FDD1D1CDC14D4D515D71716D6EC
:103C4000D21213D311D1D010F03031F133F3F2325C
:103C500036F6F737F53534F43CFCFD3DFF3F3EFECC
:103C6000FA3A3BFB39F9F83828E8E929EB2B2AEA3C
:103C7000EE2E2FEF2DEDEC2CE42425E527E7E626AC
:103C800022E2E323E12120E0A06061A163A3A2621C
:103C900066A6A767A56564A46CACAD6DAF6F6EAE8C
:103CA000AA6A6BAB69A9A86878B8B979BB7B7ABAFC
:103CB000BE7E7FBF7DBDBC7CB47475B577B7B6766C
:103CC00072B2B373B17170B05090915193535292DC
:103CD00096565797559594549C5C5D9D5F9F9E5E4C
:103CE0005A9A9B5B99595898884849894B8B8A4ABC
:103CF0004E8E8F4F8D4D4C8C44848545874746862C
:103D00008242438341818040000000007D0000002A
:103D10007D0000007D0000000000000000000000A9
:103D2000FA0000007D000000FA0000000000000022
:103D30007D0000007D0000007D0000007D0000008F
:103D40007D00000000000000FA00000000000000FC
:103D5000FA00000000000000FA000000000000006F
:103D60007D0000007D0000007D0000007D0000005F
:103D70007D000000FA00000000000000FA000000D2
:103D800000000000FA000000000000007D000000BC
:103D90007D0000007D0000007D0000007D0000002F
:103DA000FA00000000000000FA000000000000001F
:103DB000FA000000000000007D0000007D0000000F
:103DC0007D0000007D0000007D000000000000007C
:103DD00000000000FA00000000000000FA000000EF
:103DE00000000000FA00000000000000FA000000DF
:103DF000FA000000FA00000000000000FA000000D5
:103E000000000000FA00000000000000FA000000BE
:103E100000000000FA000000FA000000FA000000B4
:103E200000000000FA00000000000000FA0000009E
:103E300000000000FA00000000000000FA0000008E
:103E4000FA000000FA00000000000000FA00000084
:103E500000000000FA00000000000000FA0000006E
:103E60000000000000000000000000000000000052
:103E70000102030406070809030406080C101820B1
:103E8000300000000001020304000000AC3E000806
:103E90000000002080000000B63800082C3F000819
:103EA00080000020E0060000C63800080000000086
:103EB0000000000000000000000000000000000002
:103EC00000000000000000000000000000000000F2
:103ED00000000000000000000000000000000000E2
:103EE00000000000000000000000000000000000D2
:103EF00000000000000000000000000000000000C2
:103F000000000000000000000000000000000000B1
:103F100000000000000000000000000000000000A1
:0C3F2000000000000000000080841E0073
:04000005080000C12E
:00000001FF
